{
  "contractName": "SimpleStorage",
  "abi": [
    {
      "anonymous": false,
      "inputs": [
        {
          "indexed": false,
          "internalType": "uint256",
          "name": "_val",
          "type": "uint256"
        }
      ],
      "name": "valueChanged",
      "type": "event"
    },
    {
      "inputs": [],
      "name": "read",
      "outputs": [
        {
          "internalType": "uint256",
          "name": "",
          "type": "uint256"
        }
      ],
      "stateMutability": "view",
      "type": "function",
      "constant": true
    },
    {
      "inputs": [
        {
          "internalType": "uint256",
          "name": "newValue",
          "type": "uint256"
        }
      ],
      "name": "write",
      "outputs": [],
      "stateMutability": "nonpayable",
      "type": "function"
    },
    {
      "inputs": [
        {
          "internalType": "string",
          "name": "_say",
          "type": "string"
        }
      ],
      "name": "setGreeter",
      "outputs": [],
      "stateMutability": "nonpayable",
      "type": "function"
    },
    {
      "inputs": [],
      "name": "getGreeter",
      "outputs": [
        {
          "internalType": "string",
          "name": "",
          "type": "string"
        }
      ],
      "stateMutability": "view",
      "type": "function",
      "constant": true
    }
  ],
  "bytecode": "0x608060405234801561001057600080fd5b5061067d806100206000396000f3fe608060405234801561001057600080fd5b506004361061004c5760003560e01c8063190663e4146100515780632f048afa1461006d57806357de26a4146100895780636423dbad146100a7575b600080fd5b61006b600480360381019061006691906103fb565b6100c5565b005b6100876004803603810190610082919061047a565b6100df565b005b610091610163565b60405161009e91906104b6565b60405180910390f35b6100af61016c565b6040516100bc9190610559565b60405180910390f35b80600190805190602001906100db9291906101fe565b5050565b60058103610122576040517f08c379a0000000000000000000000000000000000000000000000000000000008152600401610119906105c7565b60405180910390fd5b806000819055507fc0dd44d3f117c96295a84b2eb7b3f6abe929928d111b030bfb3568f5efa0ff1f8160405161015891906104b6565b60405180910390a150565b60008054905090565b60606001805461017b90610616565b80601f01602080910402602001604051908101604052809291908181526020018280546101a790610616565b80156101f45780601f106101c9576101008083540402835291602001916101f4565b820191906000526020600020905b8154815290600101906020018083116101d757829003601f168201915b5050505050905090565b82805461020a90610616565b90600052602060002090601f01602090048101928261022c5760008555610273565b82601f1061024557805160ff1916838001178555610273565b82800160010185558215610273579182015b82811115610272578251825591602001919060010190610257565b5b5090506102809190610284565b5090565b5b8082111561029d576000816000905550600101610285565b5090565b6000604051905090565b600080fd5b600080fd5b600080fd5b600080fd5b6000601f19601f8301169050919050565b7f4e487b7100000000000000000000000000000000000000000000000000000000600052604160045260246000fd5b610308826102bf565b810181811067ffffffffffffffff82111715610327576103266102d0565b5b80604052505050565b600061033a6102a1565b905061034682826102ff565b919050565b600067ffffffffffffffff821115610366576103656102d0565b5b61036f826102bf565b9050602081019050919050565b82818337600083830152505050565b600061039e6103998461034b565b610330565b9050828152602081018484840111156103ba576103b96102ba565b5b6103c584828561037c565b509392505050565b600082601f8301126103e2576103e16102b5565b5b81356103f284826020860161038b565b91505092915050565b600060208284031215610411576104106102ab565b5b600082013567ffffffffffffffff81111561042f5761042e6102b0565b5b61043b848285016103cd565b91505092915050565b6000819050919050565b61045781610444565b811461046257600080fd5b50565b6000813590506104748161044e565b92915050565b6000602082840312156104905761048f6102ab565b5b600061049e84828501610465565b91505092915050565b6104b081610444565b82525050565b60006020820190506104cb60008301846104a7565b92915050565b600081519050919050565b600082825260208201905092915050565b60005b8381101561050b5780820151818401526020810190506104f0565b8381111561051a576000848401525b50505050565b600061052b826104d1565b61053581856104dc565b93506105458185602086016104ed565b61054e816102bf565b840191505092915050565b600060208201905081810360008301526105738184610520565b905092915050565b7f496e76616c696420696e7075742c203520697320666f7262696464656e000000600082015250565b60006105b1601d836104dc565b91506105bc8261057b565b602082019050919050565b600060208201905081810360008301526105e0816105a4565b9050919050565b7f4e487b7100000000000000000000000000000000000000000000000000000000600052602260045260246000fd5b6000600282049050600182168061062e57607f821691505b602082108103610641576106406105e7565b5b5091905056fea2646970667358221220dab03a5166a7857268e41c8a154afe0c2fcbc97b4f4230702d40a48e85ea20b064736f6c634300080e0033",
  "immutableReferences": {},
  "source": "// SPDX-License-Identifier: MIT\npragma solidity >=0.4.22 <0.9.0;\n\ncontract SimpleStorage {\n  uint256 value;\n  string greeter;\n\n  event valueChanged(uint256 _val);\n\n  function read() public view returns (uint256) {\n    return value;\n  }\n\n  function write(uint256 newValue) public {\n    require(newValue != 5, \"Invalid input, 5 is forbidden\");\n    value = newValue;\n    emit valueChanged(newValue);\n  }\n\n  function setGreeter(string memory _say) external {\n    greeter = _say;\n  }\n\n  function getGreeter() view external returns (string memory) {\n    return greeter;\n  }\n}\n",
  "sourcePath": "/home/cyrilmarois/Code/Formations/Alyra/Developpeur-Ethereum-Template/6. Dapp/Sample/truffle/contracts/SimpleStorage.sol",
  "compiler": {
    "name": "solc",
    "version": "0.8.14+commit.80d49f37.Emscripten.clang"
  },
  "schemaVersion": "3.4.10",
  "updatedAt": "2022-11-15T20:49:04.366Z",
  "networkType": "ethereum",
  "devdoc": {
    "kind": "dev",
    "methods": {},
    "version": 1
  },
  "userdoc": {
    "kind": "user",
    "methods": {},
    "version": 1
  }
}